{
    "_format": "hh-sol-artifact-1",
    "contractName": "Moderator",
    "sourceName": "contracts/moderator.sol",
    "abi": [
        {
            "anonymous": false,
            "inputs": [
                {
                    "indexed": true,
                    "internalType": "bytes32",
                    "name": "channelId",
                    "type": "bytes32"
                },
                {
                    "indexed": false,
                    "internalType": "address",
                    "name": "renter",
                    "type": "address"
                },
                {
                    "indexed": false,
                    "internalType": "address",
                    "name": "landlord",
                    "type": "address"
                }
            ],
            "name": "ChannelClosed",
            "type": "event"
        },
        {
            "anonymous": false,
            "inputs": [
                {
                    "indexed": true,
                    "internalType": "bytes32",
                    "name": "channelId",
                    "type": "bytes32"
                },
                {
                    "indexed": false,
                    "internalType": "address",
                    "name": "renter",
                    "type": "address"
                },
                {
                    "indexed": false,
                    "internalType": "address",
                    "name": "landlord",
                    "type": "address"
                }
            ],
            "name": "ChannelOpened",
            "type": "event"
        },
        {
            "anonymous": false,
            "inputs": [
                {
                    "indexed": true,
                    "internalType": "bytes32",
                    "name": "channelId",
                    "type": "bytes32"
                },
                {
                    "indexed": false,
                    "internalType": "uint256",
                    "name": "nonce",
                    "type": "uint256"
                },
                {
                    "indexed": false,
                    "internalType": "uint256",
                    "name": "expirationBlock",
                    "type": "uint256"
                }
            ],
            "name": "InvoiceSubmitted",
            "type": "event"
        },
        {
            "inputs": [],
            "name": "PRICE_PER_UNIT",
            "outputs": [
                {
                    "internalType": "uint256",
                    "name": "",
                    "type": "uint256"
                }
            ],
            "stateMutability": "view",
            "type": "function"
        },
        {
            "inputs": [
                {
                    "internalType": "bytes32",
                    "name": "",
                    "type": "bytes32"
                }
            ],
            "name": "channels",
            "outputs": [
                {
                    "internalType": "address",
                    "name": "renter",
                    "type": "address"
                },
                {
                    "internalType": "address",
                    "name": "landlord",
                    "type": "address"
                },
                {
                    "components": [
                        {
                            "internalType": "bytes32",
                            "name": "channelId",
                            "type": "bytes32"
                        },
                        {
                            "internalType": "uint256",
                            "name": "nonce",
                            "type": "uint256"
                        },
                        {
                            "internalType": "bytes",
                            "name": "sigL",
                            "type": "bytes"
                        },
                        {
                            "internalType": "bytes",
                            "name": "sigR",
                            "type": "bytes"
                        }
                    ],
                    "internalType": "struct Moderator.Invoice",
                    "name": "invoice",
                    "type": "tuple"
                },
                {
                    "internalType": "uint256",
                    "name": "timestamp",
                    "type": "uint256"
                },
                {
                    "internalType": "uint256",
                    "name": "expirationBlock",
                    "type": "uint256"
                },
                {
                    "internalType": "bool",
                    "name": "open",
                    "type": "bool"
                }
            ],
            "stateMutability": "view",
            "type": "function"
        },
        {
            "inputs": [
                {
                    "internalType": "bytes32",
                    "name": "channelId",
                    "type": "bytes32"
                }
            ],
            "name": "closeChannel",
            "outputs": [],
            "stateMutability": "nonpayable",
            "type": "function"
        },
        {
            "inputs": [],
            "name": "deposit",
            "outputs": [],
            "stateMutability": "payable",
            "type": "function"
        },
        {
            "inputs": [
                {
                    "internalType": "address",
                    "name": "account",
                    "type": "address"
                }
            ],
            "name": "depositTo",
            "outputs": [],
            "stateMutability": "payable",
            "type": "function"
        },
        {
            "inputs": [
                {
                    "internalType": "address",
                    "name": "account",
                    "type": "address"
                }
            ],
            "name": "getBalance",
            "outputs": [
                {
                    "internalType": "uint256",
                    "name": "",
                    "type": "uint256"
                }
            ],
            "stateMutability": "view",
            "type": "function"
        },
        {
            "inputs": [
                {
                    "internalType": "address",
                    "name": "renter",
                    "type": "address"
                },
                {
                    "internalType": "address",
                    "name": "landlord",
                    "type": "address"
                }
            ],
            "name": "openChannel",
            "outputs": [
                {
                    "internalType": "bytes32",
                    "name": "",
                    "type": "bytes32"
                }
            ],
            "stateMutability": "nonpayable",
            "type": "function"
        },
        {
            "inputs": [
                {
                    "internalType": "bytes32",
                    "name": "channelId",
                    "type": "bytes32"
                },
                {
                    "internalType": "address",
                    "name": "renter",
                    "type": "address"
                },
                {
                    "internalType": "address",
                    "name": "landlord",
                    "type": "address"
                }
            ],
            "name": "setChannelForTest",
            "outputs": [],
            "stateMutability": "nonpayable",
            "type": "function"
        },
        {
            "inputs": [
                {
                    "internalType": "bytes32",
                    "name": "channelId",
                    "type": "bytes32"
                },
                {
                    "internalType": "uint256",
                    "name": "nonce",
                    "type": "uint256"
                },
                {
                    "internalType": "bytes",
                    "name": "sigL",
                    "type": "bytes"
                },
                {
                    "internalType": "bytes",
                    "name": "sigR",
                    "type": "bytes"
                }
            ],
            "name": "submitInvoice",
            "outputs": [],
            "stateMutability": "nonpayable",
            "type": "function"
        },
        {
            "inputs": [
                {
                    "internalType": "bytes32",
                    "name": "channelId",
                    "type": "bytes32"
                },
                {
                    "internalType": "uint256",
                    "name": "nonce",
                    "type": "uint256"
                },
                {
                    "internalType": "bytes",
                    "name": "signature",
                    "type": "bytes"
                },
                {
                    "internalType": "address",
                    "name": "expectedSigner",
                    "type": "address"
                }
            ],
            "name": "verify",
            "outputs": [
                {
                    "internalType": "bool",
                    "name": "",
                    "type": "bool"
                }
            ],
            "stateMutability": "pure",
            "type": "function"
        },
        {
            "inputs": [
                {
                    "internalType": "uint256",
                    "name": "amount",
                    "type": "uint256"
                }
            ],
            "name": "withdraw",
            "outputs": [],
            "stateMutability": "nonpayable",
            "type": "function"
        }
    ],
    "bytecode": "0x6080604052348015600f57600080fd5b50612d878061001f6000396000f3fe60806040526004361061009c5760003560e01c8063a06364ad11610064578063a06364ad14610189578063b760faf9146101c6578063bffe353d146101e2578063d0e30db01461020b578063e1d1882b14610215578063f8b2cb4f146102525761009c565b80631e55eb11146100a15780632e1a7d4d146100ca5780634c2ee09d146100f35780637a7ebd7b1461011c578063919cbc4e1461015e575b600080fd5b3480156100ad57600080fd5b506100c860048036038101906100c39190611910565b61028f565b005b3480156100d657600080fd5b506100f160048036038101906100ec9190611999565b61036a565b005b3480156100ff57600080fd5b5061011a600480360381019061011591906119c6565b610548565b005b34801561012857600080fd5b50610143600480360381019061013e91906119c6565b610922565b60405161015596959493929190611b44565b60405180910390f35b34801561016a57600080fd5b50610173610aed565b6040516101809190611bac565b60405180910390f35b34801561019557600080fd5b506101b060048036038101906101ab9190611cfc565b610af2565b6040516101bd9190611d7f565b60405180910390f35b6101e060048036038101906101db9190611d9a565b610b77565b005b3480156101ee57600080fd5b5061020960048036038101906102049190611e27565b610bd0565b005b610213610f4b565b005b34801561022157600080fd5b5061023c60048036038101906102379190611ece565b610fa3565b6040516102499190611f1d565b60405180910390f35b34801561025e57600080fd5b5061027960048036038101906102749190611d9a565b611529565b6040516102869190611bac565b60405180910390f35b8160008085815260200190815260200160002060000160006101000a81548173ffffffffffffffffffffffffffffffffffffffff021916908373ffffffffffffffffffffffffffffffffffffffff1602179055508060008085815260200190815260200160002060010160006101000a81548173ffffffffffffffffffffffffffffffffffffffff021916908373ffffffffffffffffffffffffffffffffffffffff160217905550600160008085815260200190815260200160002060080160006101000a81548160ff021916908315150217905550505050565b80600260003373ffffffffffffffffffffffffffffffffffffffff1673ffffffffffffffffffffffffffffffffffffffff1681526020019081526020016000205410156103ec576040517f08c379a00000000000000000000000000000000000000000000000000000000081526004016103e390611f95565b60405180910390fd5b80600260003373ffffffffffffffffffffffffffffffffffffffff1673ffffffffffffffffffffffffffffffffffffffff168152602001908152602001600020600082825461043b9190611fe4565b9250508190555060003373ffffffffffffffffffffffffffffffffffffffff168260405161046890612049565b60006040518083038185875af1925050503d80600081146104a5576040519150601f19603f3d011682016040523d82523d6000602084013e6104aa565b606091505b50509050806105445781600260003373ffffffffffffffffffffffffffffffffffffffff1673ffffffffffffffffffffffffffffffffffffffff1681526020019081526020016000206000828254610502919061205e565b925050819055506040517f08c379a000000000000000000000000000000000000000000000000000000000815260040161053b906120de565b60405180910390fd5b5050565b600080600083815260200190815260200160002090508060080160009054906101000a900460ff166105af576040517f08c379a00000000000000000000000000000000000000000000000000000000081526004016105a69061214a565b60405180910390fd5b80600701544310156105f6576040517f08c379a00000000000000000000000000000000000000000000000000000000081526004016105ed906121dc565b60405180910390fd5b60006001826002016001015461060c91906121fc565b905080600260008460000160009054906101000a900473ffffffffffffffffffffffffffffffffffffffff1673ffffffffffffffffffffffffffffffffffffffff1673ffffffffffffffffffffffffffffffffffffffff1681526020019081526020016000205410156106b4576040517f08c379a00000000000000000000000000000000000000000000000000000000081526004016106ab90611f95565b60405180910390fd5b80600260008460000160009054906101000a900473ffffffffffffffffffffffffffffffffffffffff1673ffffffffffffffffffffffffffffffffffffffff1673ffffffffffffffffffffffffffffffffffffffff16815260200190815260200160002060008282546107279190611fe4565b9250508190555080600260008460010160009054906101000a900473ffffffffffffffffffffffffffffffffffffffff1673ffffffffffffffffffffffffffffffffffffffff1673ffffffffffffffffffffffffffffffffffffffff16815260200190815260200160002060008282546107a1919061205e565b9250508190555060008260080160006101000a81548160ff0219169083151502179055506000801b600160008460000160009054906101000a900473ffffffffffffffffffffffffffffffffffffffff1673ffffffffffffffffffffffffffffffffffffffff1673ffffffffffffffffffffffffffffffffffffffff168152602001908152602001600020819055506000801b600160008460010160009054906101000a900473ffffffffffffffffffffffffffffffffffffffff1673ffffffffffffffffffffffffffffffffffffffff1673ffffffffffffffffffffffffffffffffffffffff16815260200190815260200160002081905550827f6ab29d6877baa054a734e28baa465e1d51050df731f3a179c5157c61ca7ba91a8360000160009054906101000a900473ffffffffffffffffffffffffffffffffffffffff168460010160009054906101000a900473ffffffffffffffffffffffffffffffffffffffff1660405161091592919061223e565b60405180910390a2505050565b60006020528060005260406000206000915090508060000160009054906101000a900473ffffffffffffffffffffffffffffffffffffffff16908060010160009054906101000a900473ffffffffffffffffffffffffffffffffffffffff16908060020160405180608001604052908160008201548152602001600182015481526020016002820180546109b590612296565b80601f01602080910402602001604051908101604052809291908181526020018280546109e190612296565b8015610a2e5780601f10610a0357610100808354040283529160200191610a2e565b820191906000526020600020905b815481529060010190602001808311610a1157829003601f168201915b50505050508152602001600382018054610a4790612296565b80601f0160208091040260200160405190810160405280929190818152602001828054610a7390612296565b8015610ac05780601f10610a9557610100808354040283529160200191610ac0565b820191906000526020600020905b815481529060010190602001808311610aa357829003601f168201915b505050505081525050908060060154908060070154908060080160009054906101000a900460ff16905086565b600181565b6000808585604051602001610b0892919061232e565b6040516020818303038152906040528051906020012090506000610b2b82611572565b90506000610b3982876115a8565b90508473ffffffffffffffffffffffffffffffffffffffff168173ffffffffffffffffffffffffffffffffffffffff16149350505050949350505050565b34600260008373ffffffffffffffffffffffffffffffffffffffff1673ffffffffffffffffffffffffffffffffffffffff1681526020019081526020016000206000828254610bc6919061205e565b9250508190555050565b6000806000888152602001908152602001600020905080600201600101548611610c2f576040517f08c379a0000000000000000000000000000000000000000000000000000000008152600401610c26906123cc565b60405180910390fd5b8060080160009054906101000a900460ff16610c80576040517f08c379a0000000000000000000000000000000000000000000000000000000008152600401610c7790612438565b60405180910390fd5b6000610cf6888886868080601f016020809104026020016040519081016040528093929190818152602001838380828437600081840152601f19601f820116905080830192505050505050508560000160009054906101000a900473ffffffffffffffffffffffffffffffffffffffff16610af2565b90506000610d6e898989898080601f016020809104026020016040519081016040528093929190818152602001838380828437600081840152601f19601f820116905080830192505050505050508660010160009054906101000a900473ffffffffffffffffffffffffffffffffffffffff16610af2565b905081610db0576040517f08c379a0000000000000000000000000000000000000000000000000000000008152600401610da7906124ca565b60405180910390fd5b80610df0576040517f08c379a0000000000000000000000000000000000000000000000000000000008152600401610de79061255c565b60405180910390fd5b60405180608001604052808a815260200189815260200188888080601f016020809104026020016040519081016040528093929190818152602001838380828437600081840152601f19601f82011690508083019250505050505050815260200186868080601f016020809104026020016040519081016040528093929190818152602001838380828437600081840152601f19601f820116905080830192505050505050508152508360020160008201518160000155602082015181600101556040820151816002019081610ec69190612728565b506060820151816003019081610edc9190612728565b509050506000836007015403610f4057600343610ef9919061205e565b8360070181905550887f1865b5b1b2861578d1b6640c85a1cdd53e684c638ebcadfe07daec9191e8b633898560070154604051610f379291906127fa565b60405180910390a25b505050505050505050565b34600260003373ffffffffffffffffffffffffffffffffffffffff1673ffffffffffffffffffffffffffffffffffffffff1681526020019081526020016000206000828254610f9a919061205e565b92505081905550565b60008073ffffffffffffffffffffffffffffffffffffffff168373ffffffffffffffffffffffffffffffffffffffff161415801561100e5750600073ffffffffffffffffffffffffffffffffffffffff168273ffffffffffffffffffffffffffffffffffffffff1614155b61104d576040517f08c379a00000000000000000000000000000000000000000000000000000000081526004016110449061286f565b60405180910390fd5b8173ffffffffffffffffffffffffffffffffffffffff168373ffffffffffffffffffffffffffffffffffffffff16036110bb576040517f08c379a00000000000000000000000000000000000000000000000000000000081526004016110b290612901565b60405180910390fd5b6000801b600160008573ffffffffffffffffffffffffffffffffffffffff1673ffffffffffffffffffffffffffffffffffffffff168152602001908152602001600020541461113f576040517f08c379a000000000000000000000000000000000000000000000000000000000815260040161113690612993565b60405180910390fd5b6000801b600160008473ffffffffffffffffffffffffffffffffffffffff1673ffffffffffffffffffffffffffffffffffffffff16815260200190815260200160002054146111c3576040517f08c379a00000000000000000000000000000000000000000000000000000000081526004016111ba90612a25565b60405180910390fd5b600042905060008484836040516020016111df93929190612aae565b604051602081830303815290604052805190602001209050600073ffffffffffffffffffffffffffffffffffffffff1660008083815260200190815260200160002060000160009054906101000a900473ffffffffffffffffffffffffffffffffffffffff1673ffffffffffffffffffffffffffffffffffffffff161461129b576040517f08c379a000000000000000000000000000000000000000000000000000000000815260040161129290612b37565b60405180910390fd5b6040518060c001604052808673ffffffffffffffffffffffffffffffffffffffff1681526020018573ffffffffffffffffffffffffffffffffffffffff16815260200160405180608001604052806000801b815260200160008152602001604051806020016040528060008152508152602001604051806020016040528060008152508152508152602001838152602001600081526020016001151581525060008083815260200190815260200160002060008201518160000160006101000a81548173ffffffffffffffffffffffffffffffffffffffff021916908373ffffffffffffffffffffffffffffffffffffffff16021790555060208201518160010160006101000a81548173ffffffffffffffffffffffffffffffffffffffff021916908373ffffffffffffffffffffffffffffffffffffffff1602179055506040820151816002016000820151816000015560208201518160010155604082015181600201908161140c9190612728565b5060608201518160030190816114229190612728565b505050606082015181600601556080820151816007015560a08201518160080160006101000a81548160ff02191690831515021790555090505080600160008773ffffffffffffffffffffffffffffffffffffffff1673ffffffffffffffffffffffffffffffffffffffff1681526020019081526020016000208190555080600160008673ffffffffffffffffffffffffffffffffffffffff1673ffffffffffffffffffffffffffffffffffffffff16815260200190815260200160002081905550807fc243bfcf94f250eff29e718e9e3c9b671ace5949fc6676df72acfac6da6614f7868660405161151692919061223e565b60405180910390a2809250505092915050565b6000600260008373ffffffffffffffffffffffffffffffffffffffff1673ffffffffffffffffffffffffffffffffffffffff168152602001908152602001600020549050919050565b60007f19457468657265756d205369676e6564204d6573736167653a0a33320000000060005281601c52603c6000209050919050565b60008060006115b785856115cf565b915091506115c481611620565b819250505092915050565b60008060418351036116105760008060006020860151925060408601519150606086015160001a905061160487828585611786565b94509450505050611619565b60006002915091505b9250929050565b6000600481111561163457611633612b57565b5b81600481111561164757611646612b57565b5b0315611783576001600481111561166157611660612b57565b5b81600481111561167457611673612b57565b5b036116b4576040517f08c379a00000000000000000000000000000000000000000000000000000000081526004016116ab90612bd2565b60405180910390fd5b600260048111156116c8576116c7612b57565b5b8160048111156116db576116da612b57565b5b0361171b576040517f08c379a000000000000000000000000000000000000000000000000000000000815260040161171290612c3e565b60405180910390fd5b6003600481111561172f5761172e612b57565b5b81600481111561174257611741612b57565b5b03611782576040517f08c379a000000000000000000000000000000000000000000000000000000000815260040161177990612cd0565b60405180910390fd5b5b50565b6000807f7fffffffffffffffffffffffffffffff5d576e7357a4501ddfe92f46681b20a08360001c11156117c157600060039150915061185f565b6000600187878787604051600081526020016040526040516117e69493929190612d0c565b6020604051602081039080840390855afa158015611808573d6000803e3d6000fd5b505050602060405103519050600073ffffffffffffffffffffffffffffffffffffffff168173ffffffffffffffffffffffffffffffffffffffff16036118565760006001925092505061185f565b80600092509250505b94509492505050565b6000604051905090565b600080fd5b600080fd5b6000819050919050565b61188f8161187c565b811461189a57600080fd5b50565b6000813590506118ac81611886565b92915050565b600073ffffffffffffffffffffffffffffffffffffffff82169050919050565b60006118dd826118b2565b9050919050565b6118ed816118d2565b81146118f857600080fd5b50565b60008135905061190a816118e4565b92915050565b60008060006060848603121561192957611928611872565b5b60006119378682870161189d565b9350506020611948868287016118fb565b9250506040611959868287016118fb565b9150509250925092565b6000819050919050565b61197681611963565b811461198157600080fd5b50565b6000813590506119938161196d565b92915050565b6000602082840312156119af576119ae611872565b5b60006119bd84828501611984565b91505092915050565b6000602082840312156119dc576119db611872565b5b60006119ea8482850161189d565b91505092915050565b6119fc816118d2565b82525050565b611a0b8161187c565b82525050565b611a1a81611963565b82525050565b600081519050919050565b600082825260208201905092915050565b60005b83811015611a5a578082015181840152602081019050611a3f565b60008484015250505050565b6000601f19601f8301169050919050565b6000611a8282611a20565b611a8c8185611a2b565b9350611a9c818560208601611a3c565b611aa581611a66565b840191505092915050565b6000608083016000830151611ac86000860182611a02565b506020830151611adb6020860182611a11565b5060408301518482036040860152611af38282611a77565b91505060608301518482036060860152611b0d8282611a77565b9150508091505092915050565b611b2381611963565b82525050565b60008115159050919050565b611b3e81611b29565b82525050565b600060c082019050611b5960008301896119f3565b611b6660208301886119f3565b8181036040830152611b788187611ab0565b9050611b876060830186611b1a565b611b946080830185611b1a565b611ba160a0830184611b35565b979650505050505050565b6000602082019050611bc16000830184611b1a565b92915050565b600080fd5b600080fd5b7f4e487b7100000000000000000000000000000000000000000000000000000000600052604160045260246000fd5b611c0982611a66565b810181811067ffffffffffffffff82111715611c2857611c27611bd1565b5b80604052505050565b6000611c3b611868565b9050611c478282611c00565b919050565b600067ffffffffffffffff821115611c6757611c66611bd1565b5b611c7082611a66565b9050602081019050919050565b82818337600083830152505050565b6000611c9f611c9a84611c4c565b611c31565b905082815260208101848484011115611cbb57611cba611bcc565b5b611cc6848285611c7d565b509392505050565b600082601f830112611ce357611ce2611bc7565b5b8135611cf3848260208601611c8c565b91505092915050565b60008060008060808587031215611d1657611d15611872565b5b6000611d248782880161189d565b9450506020611d3587828801611984565b935050604085013567ffffffffffffffff811115611d5657611d55611877565b5b611d6287828801611cce565b9250506060611d73878288016118fb565b91505092959194509250565b6000602082019050611d946000830184611b35565b92915050565b600060208284031215611db057611daf611872565b5b6000611dbe848285016118fb565b91505092915050565b600080fd5b600080fd5b60008083601f840112611de757611de6611bc7565b5b8235905067ffffffffffffffff811115611e0457611e03611dc7565b5b602083019150836001820283011115611e2057611e1f611dcc565b5b9250929050565b60008060008060008060808789031215611e4457611e43611872565b5b6000611e5289828a0161189d565b9650506020611e6389828a01611984565b955050604087013567ffffffffffffffff811115611e8457611e83611877565b5b611e9089828a01611dd1565b9450945050606087013567ffffffffffffffff811115611eb357611eb2611877565b5b611ebf89828a01611dd1565b92509250509295509295509295565b60008060408385031215611ee557611ee4611872565b5b6000611ef3858286016118fb565b9250506020611f04858286016118fb565b9150509250929050565b611f178161187c565b82525050565b6000602082019050611f326000830184611f0e565b92915050565b600082825260208201905092915050565b7f696e73756666696369656e742066756e64732e00000000000000000000000000600082015250565b6000611f7f601383611f38565b9150611f8a82611f49565b602082019050919050565b60006020820190508181036000830152611fae81611f72565b9050919050565b7f4e487b7100000000000000000000000000000000000000000000000000000000600052601160045260246000fd5b6000611fef82611963565b9150611ffa83611963565b925082820390508181111561201257612011611fb5565b5b92915050565b600081905092915050565b50565b6000612033600083612018565b915061203e82612023565b600082019050919050565b600061205482612026565b9150819050919050565b600061206982611963565b915061207483611963565b925082820190508082111561208c5761208b611fb5565b5b92915050565b7f7769746864726177206661696c65642e00000000000000000000000000000000600082015250565b60006120c8601083611f38565b91506120d382612092565b602082019050919050565b600060208201905081810360008301526120f7816120bb565b9050919050565b7f74686973206368616e6e656c20697320616c726561647920636c6f7365642e00600082015250565b6000612134601f83611f38565b915061213f826120fe565b602082019050919050565b6000602082019050818103600083015261216381612127565b9050919050565b7f74686520636f6e746573742077696e646f7720666f722074686973206368616e60008201527f6e656c206973207374696c6c206f70656e2e0000000000000000000000000000602082015250565b60006121c6603283611f38565b91506121d18261216a565b604082019050919050565b600060208201905081810360008301526121f5816121b9565b9050919050565b600061220782611963565b915061221283611963565b925082820261222081611963565b9150828204841483151761223757612236611fb5565b5b5092915050565b600060408201905061225360008301856119f3565b61226060208301846119f3565b9392505050565b7f4e487b7100000000000000000000000000000000000000000000000000000000600052602260045260246000fd5b600060028204905060018216806122ae57607f821691505b6020821081036122c1576122c0612267565b5b50919050565b6000819050919050565b6122e26122dd8261187c565b6122c7565b82525050565b600063ffffffff82169050919050565b60008160e01b9050919050565b6000612310826122f8565b9050919050565b612328612323826122e8565b612305565b82525050565b600061233a82856122d1565b60208201915061234a8284612317565b6004820191508190509392505050565b7f6e657720696e766f696365206d7573742068617665206120686967686572206e60008201527f6f6e63652e000000000000000000000000000000000000000000000000000000602082015250565b60006123b6602583611f38565b91506123c18261235a565b604082019050919050565b600060208201905081810360008301526123e5816123a9565b9050919050565b7f6368616e6e656c20697320636c6f7365642e0000000000000000000000000000600082015250565b6000612422601283611f38565b915061242d826123ec565b602082019050919050565b6000602082019050818103600083015261245181612415565b9050919050565b7f72656e746572207369676e61747572652063616e6e6f7420626520766572696660008201527f6965642e00000000000000000000000000000000000000000000000000000000602082015250565b60006124b4602483611f38565b91506124bf82612458565b604082019050919050565b600060208201905081810360008301526124e3816124a7565b9050919050565b7f6c616e646c6f7264207369676e617572652063616e6e6f74206265207665726960008201527f666965642e000000000000000000000000000000000000000000000000000000602082015250565b6000612546602583611f38565b9150612551826124ea565b604082019050919050565b6000602082019050818103600083015261257581612539565b9050919050565b60008190508160005260206000209050919050565b60006020601f8301049050919050565b600082821b905092915050565b6000600883026125de7fffffffffffffffffffffffffffffffffffffffffffffffffffffffffffffffff826125a1565b6125e886836125a1565b95508019841693508086168417925050509392505050565b6000819050919050565b600061262561262061261b84611963565b612600565b611963565b9050919050565b6000819050919050565b61263f8361260a565b61265361264b8261262c565b8484546125ae565b825550505050565b600090565b61266861265b565b612673818484612636565b505050565b5b818110156126975761268c600082612660565b600181019050612679565b5050565b601f8211156126dc576126ad8161257c565b6126b684612591565b810160208510156126c5578190505b6126d96126d185612591565b830182612678565b50505b505050565b600082821c905092915050565b60006126ff600019846008026126e1565b1980831691505092915050565b600061271883836126ee565b9150826002028217905092915050565b61273182611a20565b67ffffffffffffffff81111561274a57612749611bd1565b5b6127548254612296565b61275f82828561269b565b600060209050601f8311600181146127925760008415612780578287015190505b61278a858261270c565b8655506127f2565b601f1984166127a08661257c565b60005b828110156127c8578489015182556001820191506020850194506020810190506127a3565b868310156127e557848901516127e1601f8916826126ee565b8355505b6001600288020188555050505b505050505050565b600060408201905061280f6000830185611b1a565b61281c6020830184611b1a565b9392505050565b7f696e76616c69642072656e746572206f72206c616e646c6f72642e0000000000600082015250565b6000612859601b83611f38565b915061286482612823565b602082019050919050565b600060208201905081810360008301526128888161284c565b9050919050565b7f72656e74657220616e64206c616e646c6f72642063616e27742062652074686560008201527f2073616d652e0000000000000000000000000000000000000000000000000000602082015250565b60006128eb602683611f38565b91506128f68261288f565b604082019050919050565b6000602082019050818103600083015261291a816128de565b9050919050565b7f72656e74657220616c72656164792068617320616e206163746976652063686160008201527f6e6e656c2e000000000000000000000000000000000000000000000000000000602082015250565b600061297d602583611f38565b915061298882612921565b604082019050919050565b600060208201905081810360008301526129ac81612970565b9050919050565b7f6c616e646c6f726420616c72656164792068617320616e20616374697665206360008201527f68616e6e656c2e00000000000000000000000000000000000000000000000000602082015250565b6000612a0f602783611f38565b9150612a1a826129b3565b604082019050919050565b60006020820190508181036000830152612a3e81612a02565b9050919050565b60008160601b9050919050565b6000612a5d82612a45565b9050919050565b6000612a6f82612a52565b9050919050565b612a87612a82826118d2565b612a64565b82525050565b6000819050919050565b612aa8612aa382611963565b612a8d565b82525050565b6000612aba8286612a76565b601482019150612aca8285612a76565b601482019150612ada8284612a97565b602082019150819050949350505050565b7f4368616e6e656c20616c72656164792065786973747300000000000000000000600082015250565b6000612b21601683611f38565b9150612b2c82612aeb565b602082019050919050565b60006020820190508181036000830152612b5081612b14565b9050919050565b7f4e487b7100000000000000000000000000000000000000000000000000000000600052602160045260246000fd5b7f45434453413a20696e76616c6964207369676e61747572650000000000000000600082015250565b6000612bbc601883611f38565b9150612bc782612b86565b602082019050919050565b60006020820190508181036000830152612beb81612baf565b9050919050565b7f45434453413a20696e76616c6964207369676e6174757265206c656e67746800600082015250565b6000612c28601f83611f38565b9150612c3382612bf2565b602082019050919050565b60006020820190508181036000830152612c5781612c1b565b9050919050565b7f45434453413a20696e76616c6964207369676e6174757265202773272076616c60008201527f7565000000000000000000000000000000000000000000000000000000000000602082015250565b6000612cba602283611f38565b9150612cc582612c5e565b604082019050919050565b60006020820190508181036000830152612ce981612cad565b9050919050565b600060ff82169050919050565b612d0681612cf0565b82525050565b6000608082019050612d216000830187611f0e565b612d2e6020830186612cfd565b612d3b6040830185611f0e565b612d486060830184611f0e565b9594505050505056fea2646970667358221220861d1dd88d0926b7abcd4b734a299bcc2ccf21ae75d15ed6f60fc1a9024704ef64736f6c634300081c0033",
    "linkReferences": {},
    "deployedLinkReferences": {}
}